S0150000547261666669635F4C696768742E73726563F9
S11300000C942A000C9448030C946F030C94790309
S11300100C943C000C943C000C943C000C943C006C
S11300200C943C000C943C000C943C000C948B030A
S11300300C943C000C943C000C943C000C943C004C
S11300400C943C000C943C000C943C000C943C003C
S11300500C943C0011241FBECFE5D8E0DEBFCDBF19
S113006020E0A0E6B0E001C01D92AB36B207E1F794
S11300700E94C5000C9456040C940000809160000A
S1130080813059F028F08230D1F08330E9F040C05B
S11300900E94FE030E94200428C080916A0080FD13
S11300A007C081E00E94EA0381E00E9431041DC080
S11300B080E00E94EA0380E00E94310416C00E949E
S11300C0D9030E94450411C080916A0080FD07C0D5
S11300D081E00E94EA0381E00E94310406C080E0CE
S11300E00E94EA0380E00E94310480916A00853016
S11300F088F010926A00809160008F5F80936000A6
S113010080916000843041F41092600080E0089592
S113011081E0089580E0089580E008958091610071
S113012090916200A0916300B09164000196A11DBA
S1130130B11D8093610090936200A0936300B0931B
S1130140640082349F40A105B10579F480916A006E
S11301508F5F80936A001092610010926200109287
S113016063001092640080E0089582E00895809115
S11301706000882321F0833030F083E0089591E01B
S113018090936000089580E008950E94C8030E943F
S11301900F040E94BC030E94830364E086E00E9473
S11301A075020E94E9018EE890E00E94B20387EB99
S11301B090E00E943E030E943E00FDCF843008F090
S11301C081C0683008F080C04130D9F5813091F0A9
S11301D028F08230D9F0833029F130C02AB381E08D
S11301E090E002C0880F991F6A95E2F7822B8ABBC0
S11301F080E0089527B381E090E002C0880F991F42
S11302006A95E2F7822B87BB80E0089524B381E0EE
S113021090E002C0880F991F6A95E2F7822B84BB95
S113022080E0089521B381E090E002C0880F991F17
S11302306A95E2F7822B81BB80E008958EED90E011
S11302400895411143C0813099F028F08230E9F0DB
S1130250833041F134C02AB381E090E002C0880FBA
S1130260991F6A95E2F7809582238ABB80E00895FE
S113027027B381E090E002C0880F991F6A95E2F7E6
S11302808095822387BB80E0089524B381E090E0C9
S113029002C0880F991F6A95E2F78095822384BB78
S11302A080E0089521B381E090E002C0880F991F97
S11302B06A95E2F78095822381BB80E008958EEDF4
S11302C090E0089580E0089580E0089582E0089524
S11302D0843008F077C0683008F074C04130A1F56C
S11302E0813089F028F08230C9F0833011F16BC07D
S11302F02BB381E090E002C0880F991F6A95E2F762
S1130300822B8BBB5FC028B381E090E002C0880FD2
S1130310991F6A95E2F7822B88BB54C025B381E00C
S113032090E002C0880F991F6A95E2F7822B85BB83
S113033049C022B381E090E002C0880F991F6A95FA
S1130340E2F7822B82BB3EC041113FC0813099F05D
S113035028F08230E9F0833041F139C02BB381E0D9
S113036090E002C0880F991F6A95E2F78095822376
S11303708BBB80E0089528B381E090E002C0880F31
S1130380991F6A95E2F78095822388BB80E00895DF
S113039025B381E090E002C0880F991F6A95E2F7C7
S11303A08095822385BB80E0089522B381E090E0AC
S11303B002C0880F991F6A95E2F78095822382BB59
S11303C080E00895089581E0089581E0089581E032
S11303D008958FB780688FBF80E00895863029F034
S11303E0873041F0853081F40AC08BB780648BBFBD
S11303F080E008958BB780688BBF80E008958BB749
S113040080628BBF80E0089582E00895863031F0E9
S1130410873061F1853009F060C050C0613071F0FF
S113042028F06230D9F0643089F059C085B78E7FE6
S113043085BF85B78D7F85BF80E0089585B78160CE
S113044085BF85B78D7F85BF80E0089585B78E7F92
S113045085BF85B7826085BF80E0089585B78160D8
S113046085BF85B7826085BF80E00895613071F0F3
S113047028F06230D9F0643089F033C085B78B7FBF
S113048085BF85B7877F85BF80E0089585B7846081
S113049085BF85B7877F85BF80E0089585B78B7F4B
S11304A085BF85B7886085BF80E0089585B784607F
S11304B085BF85B7886085BF80E00895623019F0F4
S11304C0643031F010C085B7806485BF80E0089542
S11304D085B78F7B85BF80E0089583E0089583E02E
S11304E0089583E0089583E00895CF93DF93C82FA0
S11304F0D62F0E94E901C63039F0C73009F449C04B
S1130500C53009F0B1C08AC040E062E083E00E94D7
S1130510DE00D13011F178F1D23019F0D43079F015
S1130520A5C041E062E083E00E94680162E08C2F94
S11305300E9406028C2F0E94EE0180E09CC041E0E4
S113054062E083E00E94680164E08C2F0E9406024E
S11305508C2F0E94EE0180E08EC040E062E083E0D8
S11305600E94680161E08C2F0E9406028C2F0E9479
S1130570EE0180E080C041E062E083E00E94680117
S113058064E08C2F0E9406028C2F0E94EE0180E012
S113059072C040E063E083E00E94DE00D13011F1DC
S11305A078F1D23019F0D43079F062C041E063E0E0
S11305B083E00E94680162E08C2F0E9406028C2F67
S11305C00E94EE0180E057C041E063E083E00E94B6
S11305D0680164E08C2F0E9406028C2F0E94EE01B9
S11305E080E049C040E063E083E00E94680161E08C
S11305F08C2F0E9406028C2F0E94EE0180E03BC0EB
S113060041E063E083E00E94680164E08C2F0E9473
S113061006028C2F0E94EE0180E02DC040E062E0D3
S113062081E00E94DE00D23019F0D43079F022C08B
S113063041E063E083E00E94680162E08C2F0E9445
S113064006028C2F0E94EE0180E015C041E063E0B9
S113065083E00E94680164E08C2F0E9406028C2FC4
S11306600E94EE0180E007C081E005C081E003C084
S113067081E001C081E0DF91CF91089590936600FD
S113068080936500892B11F484E0089580E0089537
S11306901F920F920FB60F9211242F933F934F93F3
S11306A05F936F937F938F939F93AF93BF93EF93D6
S11306B0FF93E0916500F09166000995FF91EF9139
S11306C0BF91AF919F918F917F916F915F914F9166
S11306D03F912F910F900FBE0F901F9018951F926E
S11306E00F920FB60F9211240F900FBE0F901F9010
S11306F018951F920F920FB60F9211240F900FBEF0
S11307000F901F90189583B7816083BF89B781606C
S113071089BF80E008951F920F920FB60F921124A3
S11307202F933F934F935F936F937F938F939F93F5
S1130730AF93BF93EF93FF93E0916700F09168004C
S11307400995FF91EF91BF91AF919F918F917F9107
S11307506F915F914F913F912F910F900FBE0F902A
S11307601F9018959093680080936700892B11F46B
S113077082E0089580E0089540E062E083E00E9412
S1130780DE0041E062E083E00E94680180E00895B9
S113079041E062E081E00E94DE0041E061E081E04E
S11307A00E94DE0041E060E081E00E94DE0080E023
S11307B0089540E061E081E00E94680140E062E069
S11307C081E00E94680141E060E081E00E946801EC
S11307D080E00895CF93C82F40E060E081E00E945C
S11307E0680140E062E081E00E9468014C2F61E012
S11307F081E00E94680180E0CF91089540E061E0CB
S113080081E00E94680140E060E081E00E946801AC
S113081041E062E081E00E94680180E0089541E0E7
S113082062E080E00E94DE0041E061E080E00E943E
S1130830DE0041E060E080E00E94DE0080E0089598
S113084040E061E080E00E94680140E062E080E016
S11308500E94680141E060E080E00E94680180E05D
S11308600895CF93C82F40E060E080E00E946801C3
S113087040E062E080E00E9468014C2F61E080E08B
S11308800E94680180E0CF91089540E061E080E03B
S11308900E94680140E060E080E00E94680141E05D
S11308A062E080E00E94680180E00895F894FFCF40
S9030000FC
